:020000040800F2
:10000000C00A0020010100088714000857110008E9
:100010008514000899010008111A0008000000006A
:100020000000000000000000000000007D17000834
:100030000903000800000000A91400087F17000849
:100040001B0100081B0100081B0100081B01000820
:100050001B0100081B0100081B0100081B01000810
:100060001B0100081B0100081B0100081B01000800
:100070001B0100081B0100081B0100081B010008F0
:100080001B0100081B0100081B0100081B010008E0
:100090001B0100081B0100081B0100081B010008D0
:1000A0001B0100081B0100081B0100081B010008C0
:1000B0001B0100081B0100081B0100081B010008B0
:1000C0001B0100081B0100081B0100081B010008A0
:1000D0001B0100081B0100081B0100081B01000890
:1000E0001B0100081B0100081B010008DFF80CD0F1
:1000F00000F040F800480047451C0008C00A0020F6
:100100000648804706480047FEE7FEE7FEE7FEE7B1
:10011000FEE7FEE7FEE7FEE7FEE7FEE7F51700086D
:10012000ED000008D2B201E000F8012B491EFBD21D
:1001300070470022F6E710B513460A4604461946F2
:10014000FFF7F0FF204610BD30B50B4601460020FA
:100150002022012409E021FA02F59D4205D303FA89
:1001600002F5491B04FA02F52844151EA2F101020A
:10017000F1DC30BD064C074D06E0E06840F00103BD
:1001800094E8070098471034AC42F6D3FFF7B2FF6B
:10019000B0250008D0250008FEE70000012210214C
:1001A000014800F0D2B90000000C01402DE9F043F5
:1001B00087B04FF00108814610240320414DCDE95E
:1001C00002480590464602A9284600F0DBF80022C6
:1001D0001021284600F0B9F9122000F0ABF80122F6
:1001E0001021284600F0B1F91E2000F0B7F80020D9
:1001F000CDE9024002A90496284600F0C3F8102178
:10020000284600F09DF908B12FA055E0102128469E
:1002100000F096F90028F9D01021284600F090F956
:100220000128F9D00027002634461021284600F086
:1002300087F90028F9D0282000F090F810212846EE
:1002400000F07EF9012829D0C4F1070108FA01F075
:100250008643641CE4B2082CE7D30DF807607F1CCA
:10026000FFB2052FDFD39DF800009DF801109DF827
:10027000032008449DF80210114408449DF804101E
:10028000884218D115A001F0C5FB9DF8001089F82F
:1002900001109DF8021089F800100FE01021284687
:1002A00000F04EF90128F9D0C4F1070108FA01F075
:1002B000C0B20643CDE70FA001F0ACFB07B00120B0
:1002C000BDE8F083000C01404448543131204E4FCA
:1002D0002044415441210D0A000000007265616410
:1002E00020646174612073756363657373210D0A03
:1002F00000000000726561642064617461206572B1
:10030000726F72210D0A00007047000010B504469C
:10031000042000F041FE0648E10801EB41020170B3
:10032000C2EBC1114FF6FF7202EAC101418010BD5C
:100330000A0000200849498848434FF0E0214861FD
:100340000020886101220A610A69D30701D0D20323
:10035000FAD50861886170470A00002008490978C9
:1003600048434FF0E02148610020886101220A6182
:100370000A69D30701D0D203FAD5086188617047B2
:100380000A0000202DE9F84FDFF890A100220AF1C1
:10039000040B144601274FF00F090BF1040E00BFA8
:1003A0000B6807FA04F52B40AB4274D1DFF870C13B
:1003B0004E68A6EB0C0866452BD00DDC032E34D01E
:1003C00005DC36B3012E19D0022E2FD11BE0112EE1
:1003D00016D0122E2AD119E0B8F5881F19D006DCE4
:1003E000B8F5803F15D0B8F5801F1FD111E0B8F5E2
:1003F000001F0ED0B8F5041F18D10AE0CA6815E036
:10040000CA68121D12E0CA6808320FE0CA680C32CE
:100410000CE08A682AB1012A4FF0080203D0456136
:1004200004E0042202E0056100E00022FF2B01D875
:10043000064601E000F104064FEA840501D9A5F162
:100440002005D6F800C009FA05F82CEA080C02FAD3
:1004500005F54CEA050CC6F800C04D68ED0057D50F
:10046000304DAE6946F00106AE61AD6924F0030679
:1004700005F0010500952C4D06EB050CDCF8085045
:10048000A6074FEA167809FA08F6B543274EB04298
:1004900002D1002610E03BE0254EB04201D10126FA
:1004A0000AE0244EB04201D1022605E0224EB042BD
:1004B00001D1032600E0042606FA08F62E43CCF804
:1004C00008604D68DAF80060ED03554601D51E431B
:1004D00000E09E432E604D68DBF80060AD035D4692
:1004E00001D51E4300E09E432E604D68DEF800609B
:1004F000ED02754601D51E4300E09E432E604D6817
:10050000AD020E4D2E6801D51E4300E09E432E60C5
:10051000641C102CFFF444AFBDE8F88F00040140C8
:1005200000001110001002400000014000080140CE
:10053000000C014000100140001401400C04014077
:100540008068084000D0012070470AB101617047FF
:100550000904FBE701480068704700000000002024
:1005600070B5040004D094F83D00002510B106E0F9
:10057000012070BD84F83C50204600F0C1F92420D1
:1005800084F83D002068016821F00101016000F05D
:100590002BFB33492268B0FBF1F15160314A6368AB
:1005A000934206D94FF4967359434FF47A73B1FBD3
:1005B000F3F12368491C1962616891420BD8490024
:1005C000B0FBF1F2C2F30B02042A01D2042019E0BD
:1005D000B0FBF1F016E0A3689BB301EBC10202EBA4
:1005E0000112B0FBF2F242F48042120530D04BB35C
:1005F00001EBC10202EB0111B0FBF1F040F48040CD
:1006000040F400402168C861D4E90701084321682B
:100610000860D4E90310084321688860D4E9050123
:1006200008432168C8602068016841F00101016049
:100630002564202084F83D00256384F83E50002086
:1006400070BD00E006E001EB4102B0FBF2F2CCE746
:100650000120D7E701EB4101B0FBF1F0D0E700004A
:1006600040420F00A08601002DE9FF4F81B099465E
:100670008B4604464FF00108FFF76CFF054694F8DF
:100680003D0020287BD1192301224D4920460095A9
:1006900000F0E7FD002872D194F83C0001286ED0EC
:1006A000012084F83C0020680168C90703D1016873
:1006B00041F0010101602068016821F400610160DE
:1006C000242084F83D00002626643E48E06220276E
:1006D0002068016841F4807101604B4600224FF0B0
:1006E00001112046009500F0BCFD002858D121687A
:1006F0000BF0FE000861FFF72DFF216805464869F1
:100700004969C0F3400094F83D20C1F380214FF0C7
:10071000A00A12E0B9F1000F04D0FFF71BFF411B44
:10072000494501D984F83DA0216848694969C0F369
:10073000400094F83D20C1F38021084301D1A02A54
:10074000E8D184F83D7020684169C943890717D40E
:10075000016841F4007101602068416980691923D2
:10076000012217492046009500F07BFDC0B984F8AE
:100770003D7084F83C60002005B0BDE8F08F1DE0BE
:10078000016841F40071016021686FF48060486184
:10079000192301220A492046009500F062FD08B1A4
:1007A0000320E9E74146039808F1010881428FD30D
:1007B00084F83D7084F83C600120DDE70220DBE72F
:1007C000020010000000FFFF2DE9F84F1F46904681
:1007D0008A460446DDF82890FFF7BCFE064694F8EA
:1007E0003D0020287ED1192301224349204600964E
:1007F00000F037FD00287DD194F83C00012879D025
:10080000012084F83C0020680168C90703D1016811
:1008100041F0010101602068016821F4006101607C
:10082000212084F83D00102084F83E000025256436
:10083000C4F8248067853148E062608D20853346A6
:100840004A465146204600F09BFC28B1206C84F8B3
:100850003C5004284CD00DE020684169806900902C
:1008600030E032464946204600F070FD28B1206C49
:10087000042838D00320BDE8F88F606A411C61620B
:10088000216800780861608D401E6085208D401EC3
:1008900080B2208521684A69D24352070BD450B1F7
:1008A000606A421C626200780861608D401E60854B
:1008B000208D401E208532464946204600F0AAFC85
:1008C0000028D4D1208D0028CBD154F83D0B0168ED
:1008D00041F400710160202004F81E09E577657776
:1008E0000020C8E706E02068016841F4007101605B
:1008F0000120C0E70220BEE7020010000000FFFF59
:1009000000B500680C4985B0884212D1C020009023
:10091000122001900320039069460848FFF732FD3A
:100920000748C16941F40011C161C06900F40010B9
:10093000049005B000BD000000540040000C0140D0
:100940000010024002480168491C01607047000025
:1009500000000020074810B5016841F01001016057
:10096000032000F07FF8002000F006F800F018F8EF
:10097000002010BD0020024010B5044607484FF487
:100980007A710068B0FBF1F000F013FB0022214601
:10099000501E00F047F8002010BD000004000020A9
:1009A0001E4808B5816941F001018161806900F04C
:1009B00001000090032000F055F8002211466FF06E
:1009C0000B0000F02FF8002211466FF00A0000F033
:1009D00029F8002211466FF0090000F023F80022E8
:1009E0001146501F00F01EF800221146101F00F0A3
:1009F00019F800221146901E00F014F8002211464A
:100A0000501E00F00FF80648416821F0E061416097
:100A1000416841F08061416008BD00000010024063
:100A200000000140F0B40E4B1B680C46C3F30223D8
:100A3000C3F10705042D00D90425191D072901D28A
:100A4000002300E0DB1E012606FA05F1491E2140C5
:100A500099409E40761E16403143F0BC00F014BD14
:100A60000CED00E0064900F0070208684FF6FF03AE
:100A7000184040EA0220034A104308607047000013
:100A80000CED00E00000FA052DE9F047DFF83C81AD
:100A900005460E46D8F8000000F00700B0420CD220
:100AA000D8F8001021F007013143C8F80010D8F839
:100AB000000000F00700B04263D12878444C800762
:100AC00005D56068A96820F0F000084360602878C8
:100AD000C00745D06868012816D02168022816D0C2
:100AE000890700294DDA616821F003010143616043
:100AF000FFF730FD6968074641F2883001290FD0C1
:100B00000229814619D027E021688903E9E7890194
:100B1000E7E700BFFFF71EFDC11B494501D918E0FB
:100B200081466068C0F381000128F3D118E000BF5E
:100B3000FFF710FDC11B49450BD86068C0F3810069
:100B40000228F5D10CE000BFFFF704FDC11B4945A9
:100B500002D90320BDE8F087606810F00C0FF3D1D4
:100B6000D8F80010404601F00701B1420BD90168E6
:100B700021F0070131430160006800F00700B04236
:100B800001D00120E6E72878400705D56068E968CC
:100B900020F4E060084360602878000706D56068AC
:100BA000296920F4605040EAC100606000F03CF820
:100BB0006168084AC1F30311515CC84006490860E6
:100BC0000020FFF7D9FE0020C4E70000002002400B
:100BD000001002402C1E000804000020014800689C
:100BE0007047000004000020044805490068496877
:100BF000044AC1F30221515CC84070470400002040
:100C0000001002403C1E000804480549006849687D
:100C1000044AC1F3C221515CC8407047040000205F
:100C2000001002403C1E000810B512A385B00FCB87
:100C30008DE80F0013A0144B006804905A68134805
:100C400002F00C0104290FD008290DD1C2F383440E
:100C5000D2031DF8041009D55A6804ABC2F3404210
:100C60009A5CB0FBF2F0484305B010BD0848484319
:100C7000FAE7000002030405060708090A0B0C0D39
:100C80000E0F1010010200000010024000127A0046
:100C900000093D002DE9F84F04460078B94DC00722
:100CA00048D06868C0F38100012807D06868C0F3A5
:100CB0008100022809D16868C00306D5286880032E
:100CC00038D5606800286FD034E06068B0F5803FA8
:100CD0000BD010B1B0F5A02F11D0286820F48030CF
:100CE0002860286820F4802002E0286840F48030E2
:100CF0002860606888B1FFF72DFC064609E0286887
:100D000040F480202860F0E7FFF724FC801B642873
:100D100075D828688003F7D50CE0FFF71BFC064662
:100D200005E000BFFFF716FC801B6428F0D8286898
:100D30008003F7D42078944E80074FF001094FF0DC
:100D400000083BD5686810F00C0F07D06868C0F346
:100D50008100022809D16868C00306D4286880078A
:100D600014D5206901281FD110E02069B0B1C6F860
:100D70000090FFF7EFFB074605E000BFFFF7EAFB37
:100D8000C01B0228C4D828688007F7D52868616985
:100D900020F0F80040EAC10028600FE0C6F80080AB
:100DA000FFF7D8FB074606E0E9E000BFFFF7D2FBFC
:100DB000C01B022823D828688007F7D420780007B2
:100DC0002CD57248A169D9B1C0F80090FFF7C2FBD9
:100DD000074604E0FFF7BEFBC01B02280FD8686A75
:100DE0008007F7D56A484FF4FA510068B0FBF1F07C
:100DF000009000BF0098411E0091FAD20EE080E002
:100E0000C0F80080FFF7A6FB074604E0FFF7A2FB4F
:100E1000C01B022875D8686A8007F7D4207840077D
:100E200060D5E8690027C00008D4E86940F0805028
:100E3000E861E869012700F080500090554801689A
:100E4000C90513D40168834641F480710160FFF73E
:100E500081FB824606E000BFFFF77CFBA0EB0A00A7
:100E600064284ED8DBF80000C005F5D5E0680128FD
:100E70000AD008B1052813D0286A20F001002862A2
:100E8000286A20F0040002E0286A40F0010028628D
:100E9000E06841F2883B98B1FFF75CFB82460BE0CB
:100EA000286A40F004002862EEE700BFFFF752FB1B
:100EB000A0EB0A0159455AD8286A8007F6D50CE0FC
:100EC000FFF748FB824605E0FFF744FBA0EB0A0171
:100ED00059454CD8286A8007F6D41FB1E86920F03C
:100EE0008050E861E06988B36968C1F38101022933
:100EF00045D00228C6F8608004D0FFF72BFB0446DB
:100F000038E034E0FFF726FB074604E0FFF722FB5A
:100F1000C01B02282BD828688001F7D4206AB0F5BE
:100F2000803F05D16868A16820F4003008436860FC
:100F3000D4E908010843696821F474110843686022
:100F4000C6F86090FFF706FB044606E015E000BF18
:100F5000FFF700FB001B022809D828688001F7D59D
:100F60000BE000BFFFF7F6FA001B022802D90320AE
:100F7000BDE8F88F28688001F4D40020F8E701204C
:100F8000F6E70000001002400000424280044242A6
:100F900004000020007000404FF0E02104280869A0
:100FA00003D020F004000861704740F00400FAE725
:100FB000704710B5401EB0F1807F01D3012010BDF5
:100FC0004FF0E02460610F21601700F05DFA00200F
:100FD000A06107202061002010BD10B5FFF7E8FFD9
:100FE00010BD70B5040004D094F83900002510B18C
:100FF00006E0012070BD84F83850204600F022F849
:10100000242084F839002068C16821F40051C160AF
:10101000204600F013FC2068016921F49041016131
:101020002068416921F02A0141612068C16841F4CA
:101030000051C160E563202084F8390084F83A004B
:10104000002070BD10B50068114986B088421DD1DE
:101050001048816941F48041816180690E4C00F43F
:10106000804004904FF40070009002200190032013
:10107000039069462046FFF785F900212015CDE948
:101080000001029169462046FFF77CF906B010BDC9
:101090000038014000100240000801402DE9F843EB
:1010A000044690F839001F4616460D46202850D1B8
:1010B000A5B19EB194F8380001284AD0012084F8E7
:1010C00038004FF00008C4F83C80212084F8390033
:1010D000FFF740FAA6848146E68426E00120BDE8B9
:1010E000F883E08C401EE084A0684B46B0F5805F3A
:1010F0004FF000024FF080012046009703D000F02F
:1011000055FCE8B90DE000F051FCC8B92888216809
:10111000C0F308004860206908B16D1C05E0AD1CF3
:1011200003E0216815F8010B4860E08C0028D8D155
:101130004B46002240212046009700F037FC08B1C2
:101140000320CCE7202084F8390084F83880002080
:10115000C5E70220C3E7FEE701684A69D2435205AA
:101160000CD46FF480624A6104210164002140F8CC
:10117000301F202242730173012070470020704706
:10118000F8B50446C06A1E460D461746042807D027
:10119000012805D010F5803F02D0206B122804D121
:1011A0002068016841F480710160134600224FF00D
:1011B00001112046009600F054F8A0B92069B0F55E
:1011C000804F12D00620216800EAD51040F0F000D0
:1011D000086133463A460E49204600F073F838B1AC
:1011E000206C042811D00320F8BD05F0FE0000E0BB
:1011F000E8B221680861064933463A46891F20460D
:1012000000F060F80028EBD1F8BD0120F8BD000027
:101210000800010070B516460D4604461AE0204647
:10122000FFF79AFF08B1012070BD681C12D025B1EC
:10123000FFF790F9801BA8420CD954F8400F40F0FA
:10124000200044F8100900202060202161732073E1
:10125000032070BD20684069C0434007DFD40020F0
:1012600070BD2DE9F0471E4690460D460446C1F379
:101270000747DDF8209012E0701C10D02EB1FFF768
:1012800069F9A0EB0900B04209D9002044F8300FF9
:1012900020216173A07320730320BDE8F0872068CC
:1012A000012F0AD0806925EA00000004000C06D056
:1012B00000214145E0D00020EFE74069F3E701213C
:1012C000F7E700002DE9F0479A4691460D4604469F
:1012D00000264FF02008C1F307472AE02068406944
:1012E000C043400512D42068016841F400710160D8
:1012F00021686FF48060486104202064266384F8CC
:101300003D8084F83C600120BDE8F087B9F1FF3FE3
:101310000FD0B9F1000F05D0FFF71CF9A0EB0A01BF
:10132000494506D944F8306F84F80D8026730320B0
:10133000EAE72068012F07D0D0F8180025EA00005E
:101340000004000CE0D0C9E74069F7E770B5164625
:101350000D4604461AE02046FFF7FEFE08B10120C4
:1013600070BD681C12D025B1FFF7F4F8801BA842AD
:101370000CD954F8400F40F0200044F81009002028
:101380002060202161732073032070BD20684069B4
:10139000C0430006DFD4002070BD0000164810B521
:1013A000816986B041F020018161816901F02001ED
:1013B0000491816941F004018161816901F00401B6
:1013C0000491816941F00801816180690B4C00F052
:1013D00008000490002210212046FFF7B6F81020E4
:1013E0000090012001900320039069462046FEF7FB
:1013F000C9FF06B010BD000000100240000C014003
:101400000B4810B5094901600A49416000214FF4B9
:1014100080428160C0E9031241618161C161016262
:10142000FFF79EF8002800D0FEE710BD00540040F2
:101430002C000020801A06000D4810B50B490160F1
:101440004FF4E1314160002181600C22C160C0E9AC
:1014500004128161C161FFF7C4FD002805D0BDE819
:101460001040302103A000F0D4BA10BD0038014074
:10147000800000202E2E5C5372635C757361727461
:101480002E630000FEE770470907090E002806DA00
:1014900000F00F0000F1E02080F8141D704700F10B
:1014A000E02080F8001470477047000070B5802875
:1014B00013D2402911D20B4B012401F007051E79EC
:1014C000AC40094BC90800EBC1100EB132B101E0CC
:1014D000012A03D0195CA143195470BD195C214342
:1014E000FAE7000018000020C000002028B1FF2209
:1014F0004FF480610248FEF715BE0022F8E70000B5
:10150000C0000020014A1080518070471800002060
:1015100010B500F051FC44F62063012278215148B7
:10152000FFF7A2F808B1002010BD40F6C210401E1F
:10153000FDD1AE220021782000F044FC20220021C1
:10154000782000F03FFC10220021782000F03AFCC7
:10155000B0220021782000F035FCC822002178203C
:1015600000F030FC00221146782000F02BFC102205
:101570000021782000F026FC40220021782000F095
:1015800021FC81220021782000F01CFCFF22002198
:10159000782000F017FCA1220021782000F012FC36
:1015A000A6220021782000F00DFCA822002178203E
:1015B00000F008FC3F220021782000F003FCA42268
:1015C0000021782000F0FEFBD3220021782000F0DB
:1015D000F9FB00221146782000F0F4FBD52200210F
:1015E000782000F0EFFBF0220021782000F0EAFBE9
:1015F000D9220021782000F0E5FB2222002178206A
:1016000000F0E0FBDA220021782000F0DBFB122260
:101610000021782000F0D6FBDB220021782000F0AA
:10162000D1FB20220021782000F0CCFB8D2200216C
:10163000782000F0C7FB14220021782000F0C2FBC4
:10164000AF220021782000F0BDFB0020FFF74EFF05
:1016500000F070F8044800210180418001214171AF
:10166000084610BD2C000020180000202DE9F0478E
:10167000814625480D46924601882A7811448029E2
:1016800005D28046408869780844402802D300206B
:10169000BDE8F08700262AE0A9F1200101FB0060E7
:1016A0006A68002432F810701DE000BF07FA04F0E9
:1016B000000409D5B8F80210B8F8000031442044FD
:1016C00089B280B252460BE0BAF1000F1AD0002264
:1016D000B8F80210B8F800003144204489B280B252
:1016E000FFF7E4FE641C2878A042DFD8761C6878F7
:1016F000B042D1D8B8F800102A7848461144A8F86A
:101700000010C5E70122E3E71800002070B5154678
:101710000E46044609E02A463146FFF7A7FF217826
:10172000884201D0C8B270BD641C20780028F2D174
:10173000C0B270BD70B5104D002400BF04F1B00000
:10174000C2B20021782000F03DFB00221146782033
:1017500000F038FB10220021782000F033FB05EB6D
:10176000C41280234021782000F03CFB641CE4B2CA
:10177000082CE3D370BD0000C0000020704710B5F6
:10178000FFF7E0F8BDE81040FFF727BC30B58FB099
:1017900001210804CDE900100024029402250491DF
:1017A000CDE90750C00009906846FFF773FA00B111
:1017B000FEE70F20CDE90A054FF48060CDE90C402B
:1017C00001210AA80E94FFF75FF900B1FEE7FFF7C9
:1017D00005FA4FF47A71B0FBF1F0FFF7EAFB042051
:1017E000FFF7DAFB00221146501EFFF71BF90FB07E
:1017F00030BD00000D48016841F001010160416801
:101800000B4A1140416001680A4A114001600168B9
:1018100021F480210160416821F4FE0141604FF410
:101820001F0181600449C003086070470010024036
:101830000000FFF8FFFFF6FE08ED00E02DE9F041A3
:10184000044600680169E26821F4405111430161D6
:101850002169A0680843616908432168CA6841F2A8
:101860000C639A430243CA6020684169A26921F46B
:101870004071114341614C492068642532268842F9
:101880003CD1FFF7C1F900EBC00101EB001061682A
:101890008900B0FBF1F7FFF7B7F900EBC00101EBEE
:1018A00000106168B0468900B0FBF1F0B0FBF5F0C4
:1018B0006FF01801484307EB800106EB0110B0FB05
:1018C000F5F000F0F006FFF79FF900EBC00101EB27
:1018D000001061688900B0FBF1F0B0FBF5F006EB99
:1018E0000016FFF791F900EBC00101EB00106168F1
:1018F0008900B0FBF1F7FFF787F93BE0FFF774F9D8
:1019000000EBC00101EB001061688900B0FBF1F74A
:10191000FFF76AF900EBC00101EB00106168B04607
:101920008900B0FBF1F0B0FBF5F06FF0180148430F
:1019300007EB800106EB0110B0FBF5F000F0F006BC
:10194000FFF752F900EBC00101EB0010616889005C
:10195000B0FBF1F0B0FBF5F006EB0016FFF744F931
:1019600000EBC00101EB001061688900B0FBF1F7EA
:10197000FFF73AF900EBC00101EB00106168890044
:10198000B0FBF1F0B0FBF5F06FF01801484307EB46
:10199000800108EB0110B0FBF5F0216800F00F00AA
:1019A00030448860BDE8F081003801402DE9F04105
:1019B000984617460E460446069D1DE0681C1BD03F
:1019C0002DB1FEF7C7FDA0EB0800A84214D920688E
:1019D000C16821F4D071C1602068416921F0010122
:1019E0004161202084F8390084F83A00002084F80E
:1019F00038000320BDE8F0812068006836EA000066
:101A000004D00020B842D9D00020F3E70120F9E744
:101A1000FEE7FEE70FB4054B10B503A9044A029890
:101A200000F02CF810BC5DF814FB0000DD1B000872
:101A3000200000200FB4084B10B504A902AA039897
:101A400000F01CF8044602A9002000F0C1F820466E
:101A500010BC5DF814FB0000D11B000802E008C8B0
:101A6000121F08C1002AFAD170477047002001E018
:101A700001C1121F002AFBD1704700002DE9FF4F62
:101A800089B09B460446002506E025280BD05A461F
:101A90000B999047641C6D1C20780028F5D10DB07F
:101AA0002846BDE8F08F0027B8460122474900E0EC
:101AB000074314F8013F203B02FA03F00842F7D134
:101AC00020782E2819D114F8010F47F004072A288E
:101AD0000ED06FF02F022078A0F1300109290CD828
:101AE00008EB880102EB410100EB0108641CF2E7FE
:101AF0000A98641C50F8048B0A9020780028CED0F5
:101B0000642808D0692806D075281ED05A460B993B
:101B100090476D1C58E00A994FF00A0901C90A91D3
:101B2000002802DA40422D2102E0390504D52B219C
:101B30008DF82010012103E0F90704D02021F7E7F8
:101B40008A4608AE0DE00021FAE70A994FF00A092B
:101B500001C90A91F7E74946FEF7F6FA303106F86F
:101B6000011D0028F7D1ADEB060000F12009780730
:101B700001D44FF00108C84502DDA8EB090000E0E0
:101B800000208046002706E008A85A46C05D0B9951
:101B900090476D1C7F1C5745F6DB04E030205A4609
:101BA0000B9990476D1CB8F10001A8F10108F5DC14
:101BB00005E016F8010B5A460B9990476D1CB9F1D8
:101BC0000001A9F10109F4DC641C65E709280100A2
:101BD0000A68531C0B6010707047000013B54FF675
:101BE000FF73012269460248FFF758FA00981CBDAE
:101BF0008000002010B5002821D0114B0022001FCA
:101C0000196803E0814203D80A4649680029F9D1DE
:101C100052B11368841A9C4204D1006818441060C1
:101C2000104602E0506000E0186039B102680B1AFB
:101C3000934203D10B681A4402604968416010BDA9
:101C40002400002088B0FEF785FEFFF79FFDFFF718
:101C5000A5FBFFF7D5FBFFF7EFFB2020FEF756FBB8
:101C6000FFF756FCFEF79AFA14210F20FFF74AFC03
:101C70000122224922A0FFF749FDFFF75BFD4FF447
:101C80007A70FEF757FB2D210F20FFF73BFC012256
:101C90001A491FA0FFF73AFDFFF74CFD4FF4FA6019
:101CA000FEF748FB1E4C40F6B8351D48FEF77EFA9D
:101CB000627821781BA0FFF7ADFE637822781EA121
:101CC0006846FFF7B7FE0020FFF710FC1421022042
:101CD000FFF718FC012209496846FFF717FD282184
:101CE0000F20FFF70FFC0122044909A0FFF70EFDAA
:101CF000FFF720FD2846FEF71DFBD6E71000002069
:101D000073797374656D2073746172742E2E2E0056
:101D10007777772E696D6C6975626F2E6D6500003F
:101D20000800002054454D503A2025642048554D68
:101D3000443A2025640D0A0054454D503A2025644C
:101D40002048554D443A202564000000F0B50B3082
:101D5000154D20F007010024144A0FE003688B4260
:101D60000BD38B4205D95E1A43184768C3E9006755
:101D700000E04368136002C004E0021D1068002800
:101D8000ECD12046002802D1286808B10020F0BD1F
:101D9000064A07481060074A121A22F00702C0E9F3
:101DA000002401202860D7E728000020240000201C
:101DB000C4040020C00600200148401EFDD1704729
:101DC00090D003001CB502238DF804100A21009165
:101DD0008DF80520014601AA0148FEF7F5FC1CBD5F
:101DE0002C0000202DE9F84380461C4616460F467D
:101DF000581CFFF7ABFF05460770012005E03118BE
:101E000011F8011C2954401CC0B2A042F7D90A2085
:101E1000009023462A4641460348FEF7D5FC284653
:101E2000BDE8F843FFF7E6BE2C00002000000000EC
:101E3000000000000102030406070809000000007A
:101E40000102030400000000000000000000000088
:101E50000000000000000000001000100010001042
:101E600000100010000000100000000000280028F2
:101E7000002800000000000000000000000000003A
:101E800000240024007C00240048007C0048004816
:101E900000000000003800540050003800140054C6
:101EA000005400380010000000200054005800309A
:101EB0000028005400140008000000000010002852
:101EC00000280010003400480048003400000000E2
:101ED00000100010001000000000000000000000D2
:101EE000000000000008001000200020002000205A
:101EF000002000200010000800200010000800084A
:101F00000008000800080008001000200010003839
:101F10000010002800000000000000000000000089
:101F20000000000000100010007C001000100000F5
:101F300000000000000000000000000000000000A1
:101F40000000001000100010000000000000000061
:101F50000000003800000000000000000000000049
:101F60000000000000000000000000100000000061
:101F700000080008001000100010001000200020D1
:101F800000000000003800440044005400440044B5
:101F90000044003800000000001000300050001025
:101FA0000010001000100010000000000038004475
:101FB00000440004000800100020007C0000000025
:101FC00000380044000400180004000400440038F5
:101FD0000000000000080018002800280048007CCD
:101FE0000008000800000000007C0040004000786D
:101FF00000040004004400380000000000380044E1
:102000000040007800440044004400380000000014
:10201000007C0004000800100010002000200020B8
:102020000000000000380044004400380044004430
:102030000044003800000000003800440044004420
:10204000003C0004004400380000000000000000D4
:102050000010000000000000000000100000000060
:102060000000000000000010000000000000001050
:102070000010001000000000000C00300040003094
:10208000000C000000000000000000000000007CC8
:102090000000007C000000000000000000000000C4
:1020A000006000180004001800600000000000003C
:1020B0000038004400040008001000100000001068
:1020C0000000000000380044004C0054005C004058
:1020D0000040003800000000001000280028002800
:1020E0000028007C00440044000000000078004408
:1020F00000440078004400440044007800000000E0
:1021000000380044004000400040004000440038D7
:1021100000000000007000480044004400440044F7
:102120000048007000000000007C00400040007C7F
:10213000004000400040007C00000000007C0040A7
:1021400000400078004000400040004000000000D7
:102150000038004400400040005C00440044003867
:1021600000000000004400440044007C004400449F
:10217000004400440000000000380010001000106F
:1021800000100010001000380000000000040004DF
:1021900000040004000400040044003800000000B3
:1021A00000440048005000600050004800480044CF
:1021B000000000000040004000400040004000409F
:1021C0000040007C000000000044006C006C0054E3
:1021D0000044004400440044000000000044006447
:1021E000006400540054004C004C00440000000007
:1021F00000380044004400440044004400440038D7
:1022000000000000007800440044004400780040D2
:10221000004000400000000000380044004400443A
:1022200000440044005400380004000000780044DA
:1022300000440044007800480048004400000000CA
:10224000003800440040003000080004004400381A
:1022500000000000007C00100010001000100010B2
:10226000001000100000000000440044004400443E
:1022700000440044004400380000000000440044D2
:102280000044002800280028001000100000000072
:1022900000440044005400540054006C00280028FE
:1022A0000000000000440028002800100010002852
:1022B00000280044000000000044004400280028DA
:1022C000001000100010001000000000007C00044E
:1022D00000080010001000200040007C00000000FA
:1022E0000018001000100010001000100010001066
:1022F0000010001800200020001000100010001036
:10230000000800080000000000300010001000105D
:102310000010001000100010001000300010002805
:102320000028004400000000000000000000000041
:10233000000000000000000000000000000000009D
:10234000000000FE0020001000000000000000005F
:102350000000000000000000000000000038004401
:10236000003C0044004C00340000000000400040ED
:10237000005800640044004400640058000000005D
:1023800000000000003800440040004000440038D5
:1023900000000000000400040034004C004400442D
:1023A000004C003400000000000000000038004431
:1023B000007C00400044003800000000000C0010C9
:1023C000007C001000100010001000100000000041
:1023D000000000000034004C00440044004C003475
:1023E00000040078004000400058006400440044AD
:1023F00000440044000000000010000000700010C5
:10240000001000100010001000000000001000007C
:10241000007000100010001000100010001000E00C
:102420000040004000480050006000500048004458
:1024300000000000007000100010001000100010DC
:1024400000100010000000000000000000780054A0
:10245000005400540054005400000000000000002C
:1024600000580064004400440044004400000000A0
:1024700000000000003800440044004400440038DC
:102480000000000000000000005800640044004408
:102490000064005800400040000000000034004C80
:1024A00000440044004C003400040004000000001C
:1024B0000058006400400040004000400000000060
:1024C00000000000003800440030000800440038DC
:1024D00000000000002000200078002000200020E4
:1024E000002000180000000000000000004400442C
:1024F00000440044004C00340000000000000000D4
:1025000000440044002800280028001000000000BB
:1025100000000000005400540054006C0028002803
:10252000000000000000000000440028001000101F
:1025300000280044000000000000000000440044A7
:1025400000280028001000100010006000000000AB
:10255000007C0008001000200040007C000000000B
:1025600000180010001000100020002000100010C3
:1025700000100018001000100010001000100010D3
:1025800000100010001000100030001000100010AB
:1025900000080008001000100010003000000000CB
:1025A00000000074004C000000000000000000006B
:1025B000D0250008000000202C0000005C1A000854
:1025C000FC2500082C000020940A00006C1A00086A
:1025D0000000000000A24A0400000000000000000B
:1025E000070A0000441E0008000000000000000070
:0C25F000000000000000000000000000DF
:04000005080000ED02
:00000001FF
