:020000040800F2
:100000005804002001010008FF0D00084F0D0008F2
:10001000FD0D000875010008B51000080000000083
:10002000000000000000000000000000230E000897
:10003000E502000800000000210E0008250E00085F
:100040001B0100081B0100081B0100081B01000820
:100050001B0100081B0100081B0100081B01000810
:100060001B0100081B0100081B0100081B01000800
:100070001B0100081B0100081B0100081B010008F0
:100080001B0100081B0100081B0100081B010008E0
:100090001B0100081B0100081B0100081B010008D0
:1000A0001B0100081B0100081B0100081B010008C0
:1000B0001B0100081B0100081B0100081B010008B0
:1000C0001B0100081B0100081B0100081B010008A0
:1000D0001B0100081B0100081B0100081B01000890
:1000E0001B0100081B0100081B010008DFF80CD0F1
:1000F00000F02EF800480047651200085804002060
:100100000648804706480047FEE7FEE7FEE7FEE7B1
:10011000FEE7FEE7FEE7FEE7FEE7FEE7990E0008D2
:10012000ED00000830B50B460146002020220124D6
:1001300009E021FA02F59D4205D303FA02F5491BB5
:1001400004FA02F52844151EA2F10102F1DC30BDCB
:10015000064C074D06E0E06840F0010394E8070014
:1001600098471034AC42F6D3FFF7C4FF10130008D1
:1001700030130008FEE7000001221021014800F0C2
:10018000D2B90000000C01402DE9F04387B04FF0D8
:100190000108814610240320414DCDE90248059015
:1001A000464602A9284600F0DBF800221021284626
:1001B00000F0B9F9122000F0ABF801221021284616
:1001C00000F0B1F91E2000F0B7F80020CDE90240A0
:1001D00002A90496284600F0C3F81021284600F032
:1001E0009DF908B12FA055E01021284600F096F99E
:1001F0000028F9D01021284600F090F90128F9D004
:100200000027002634461021284600F087F90028F0
:10021000F9D0282000F090F81021284600F07EF94F
:10022000012829D0C4F1070108FA01F08643641CB3
:10023000E4B2082CE7D30DF807607F1CFFB2052F4E
:10024000DFD39DF800009DF801109DF803200844BD
:100250009DF80210114408449DF80410884218D1FA
:1002600015A000F029FF9DF8001089F801109DF8F5
:10027000021089F800100FE01021284600F04EF916
:100280000128F9D0C4F1070108FA01F0C0B2064311
:10029000CDE70FA000F010FF07B00120BDE8F0830C
:1002A000000C01404448543131204E4F2044415409
:1002B00041210D0A000000007265616420646174D0
:1002C000612073756363657373210D0A000000007C
:1002D000726561642064617461206572726F72215D
:1002E0000D0A00007047000010B50446042000F01D
:1002F0004FFC0648E10801EB41020170C2EBC1115D
:100300004FF6FF7202EAC101418010BD06000020D5
:100310000849498848434FF0E0214861002088613E
:1003200001220A610A69D30701D0D203FAD5086114
:1003300088617047060000200849097848434FF05B
:10034000E02148610020886101220A610A69D3071F
:1003500001D0D203FAD508618861704706000020F9
:100360002DE9F84FDFF890A100220AF1040B1446A2
:1003700001274FF00F090BF1040E00BF0B6807FABD
:1003800004F52B40AB4274D1DFF870C14E68A6EB88
:100390000C0866452BD00DDC032E34D005DC36B3BB
:1003A000012E19D0022E2FD11BE0112E16D0122EA5
:1003B0002AD119E0B8F5881F19D006DCB8F5803FBE
:1003C00015D0B8F5801F1FD111E0B8F5001F0ED071
:1003D000B8F5041F18D10AE0CA6815E0CA68121DF2
:1003E00012E0CA6808320FE0CA680C320CE08A6872
:1003F0002AB1012A4FF0080203D0456104E004222B
:1004000002E0056100E00022FF2B01D8064601E072
:1004100000F104064FEA840501D9A5F12005D6F8BC
:1004200000C009FA05F82CEA080C02FA05F54CEAB6
:10043000050CC6F800C04D68ED0057D5304DAE69CB
:1004400046F00106AE61AD6924F0030605F0010532
:1004500000952C4D06EB050CDCF80850A6074FEA7A
:10046000167809FA08F6B543274EB04202D10026A5
:1004700010E03BE0254EB04201D101260AE0244EB7
:10048000B04201D1022605E0224EB04201D103263E
:1004900000E0042606FA08F62E43CCF808604D6802
:1004A000DAF80060ED03554601D51E4300E09E4397
:1004B0002E604D68DBF80060AD035D4601D51E433C
:1004C00000E09E432E604D68DEF80060ED02754648
:1004D00001D51E4300E09E432E604D68AD020E4DD7
:1004E0002E6801D51E4300E09E432E60641C102C34
:1004F000FFF444AFBDE8F88F000401400000111084
:10050000001002400000014000080140000C0140C2
:1005100000100140001401400C04014080680840B4
:1005200000D0012070470AB1016170470904FBE760
:1005300001480068704700000C0000200248016874
:10054000491C0160704700000C000020074810B5EE
:10055000016841F010010160032000F07FF80020E5
:1005600000F006F800F018F8002010BD002002404E
:1005700010B5044607484FF47A710068B0FBF1F0FB
:1005800000F013FB00222146501E00F047F8002027
:1005900010BD0000000000201E4808B5816941F030
:1005A00001018161806900F001000090032000F0EA
:1005B00055F8002211466FF00B0000F02FF80022D2
:1005C00011466FF00A0000F029F8002211466FF082
:1005D000090000F023F800221146501F00F01EF819
:1005E00000221146101F00F019F800221146901E3B
:1005F00000F014F800221146501E00F00FF80648D3
:10060000416821F0E0614160416841F080614160F2
:1006100008BD00000010024000000140F0B40E4B85
:100620001B680C46C3F30223C3F10705042D00D950
:100630000425191D072901D2002300E0DB1E012635
:1006400006FA05F1491E214099409E40761E16404B
:100650003143F0BC00F0D4BB0CED00E0064900F0E3
:10066000070208684FF6FF03184040EA0220034AD9
:1006700010430860704700000CED00E00000FA0530
:100680002DE9F047DFF83C8105460E46D8F800001A
:1006900000F00700B0420CD2D8F8001021F007019A
:1006A0003143C8F80010D8F8000000F00700B0424D
:1006B00063D12878444C800705D56068A96820F08C
:1006C000F000084360602878C00745D068680128BA
:1006D00016D02168022816D0890700294DDA6168F2
:1006E00021F0030101436160FFF722FF69680746BB
:1006F00041F2883001290FD00229814619D027E024
:1007000021688903E9E78901E7E700BFFFF710FFE8
:10071000C11B494501D918E081466068C0F38100DA
:100720000128F3D118E000BFFFF702FFC11B4945C4
:100730000BD86068C0F381000228F5D10CE000BF3F
:10074000FFF7F6FEC11B494502D90320BDE8F0873B
:10075000606810F00C0FF3D1D8F80010404601F09B
:100760000701B1420BD9016821F007013143016053
:10077000006800F00700B04201D00120E6E72878C9
:10078000400705D56068E96820F4E06008436060D0
:100790002878000706D56068296920F4605040EA8F
:1007A000C100606000F03CF86168084AC1F30311C1
:1007B000515CC840064908600020FFF7D9FE0020C0
:1007C000C4E700000020024000100240F8120008B8
:1007D0000000002001480068704700000000002071
:1007E0000448054900684968044AC1F30221515C84
:1007F000C8407047000000200010024008130008A5
:100800000448054900684968044AC1F3C221515CA3
:10081000C840704700000020001002400813000884
:1008200010B512A385B00FCB8DE80F0013A0144BA9
:10083000006804905A68134802F00C0104290FD094
:1008400008290DD1C2F38344D2031DF8041009D541
:100850005A6804ABC2F340429A5CB0FBF2F04843E2
:1008600005B010BD08484843FAE70000020304053C
:10087000060708090A0B0C0D0E0F101001020000EC
:100880000010024000127A0000093D002DE9F84FE7
:1008900004460078B94DC00748D06868C0F38100AD
:1008A000012807D06868C0F38100022809D1686870
:1008B000C00306D52868800338D5606800286FD04B
:1008C00034E06068B0F5803F0BD010B1B0F5A02FD8
:1008D00011D0286820F480302860286820F4802017
:1008E00002E0286840F480302860606888B1FFF733
:1008F0001FFE064609E0286840F480202860F0E7E3
:10090000FFF716FE801B642875D828688003F7D58A
:100910000CE0FFF70DFE064605E000BFFFF708FEFE
:10092000801B6428F0D828688003F7D42078944E80
:1009300080074FF001094FF000083BD5686810F0C0
:100940000C0F07D06868C0F38100022809D16868DD
:10095000C00306D42868800714D5206901281FD158
:1009600010E02069B0B1C6F80090FFF7E1FD07463E
:1009700005E000BFFFF7DCFDC01B0228C4D82868D3
:100980008007F7D52868616920F0F80040EAC100C7
:1009900028600FE0C6F80080FFF7CAFD074606E0B2
:1009A000E9E000BFFFF7C4FDC01B022823D8286878
:1009B0008007F7D4207800072CD57248A169D9B1F7
:1009C000C0F80090FFF7B4FD074604E0FFF7B0FD64
:1009D000C01B02280FD8686A8007F7D56A484FF411
:1009E000FA510068B0FBF1F0009000BF0098411E82
:1009F0000091FAD20EE080E0C0F80080FFF798FD89
:100A0000074604E0FFF794FDC01B022875D8686A0A
:100A10008007F7D42078400760D5E8690027C00038
:100A200008D4E86940F08050E861E869012700F0E7
:100A30008050009055480168C90513D40168834669
:100A400041F480710160FFF773FD824606E000BF4C
:100A5000FFF76EFDA0EB0A0064284ED8DBF800001B
:100A6000C005F5D5E06801280AD008B1052813D0E3
:100A7000286A20F001002862286A20F0040002E0C1
:100A8000286A40F001002862E06841F2883B98B192
:100A9000FFF74EFD82460BE0286A40F00400286212
:100AA000EEE700BFFFF744FDA0EB0A0159455AD815
:100AB000286A8007F6D50CE0FFF73AFD824605E08C
:100AC000FFF736FDA0EB0A0159454CD8286A80078C
:100AD000F6D41FB1E86920F08050E861E06988B37E
:100AE0006968C1F38101022945D00228C6F86080F7
:100AF00004D0FFF71DFD044638E034E0FFF718FD91
:100B0000074604E0FFF714FDC01B02282BD8286815
:100B10008001F7D4206AB0F5803F05D16868A168EC
:100B200020F4003008436860D4E90801084369688C
:100B300021F4741108436860C6F86090FFF7F8FC70
:100B4000044606E015E000BFFFF7F2FC001B022898
:100B500009D828688001F7D50BE000BFFFF7E8FC53
:100B6000001B022802D90320BDE8F88F2868800105
:100B7000F4D40020F8E70120F6E70000001002405E
:100B80000000424280044242000000200070004009
:100B90004FF0E0210428086903D020F00400086128
:100BA000704740F00400FAE7704710B5401EB0F1FE
:100BB000807F01D3012010BD4FF0E02460610F2140
:100BC000601700F01DF90020A061072020610020BF
:100BD00010BD10B5FFF7E8FF10BD70B5040004D0DC
:100BE00094F83900002510B106E0012070BD84F8AA
:100BF0003850204600F022F8242084F8390020687C
:100C0000C16821F40051C160204600F069F92068F4
:100C1000016921F4904101612068416921F02A01B4
:100C200041612068C16841F40051C160E563202042
:100C300084F8390084F83A00002070BD10B50068CF
:100C4000114986B088421DD11048816941F4804124
:100C5000816180690E4C00F4804004904FF4007074
:100C60000090022001900320039069462046FFF780
:100C700077FB00212015CDE900010291694620464D
:100C8000FFF76EFB06B010BD0038014000100240B7
:100C9000000801402DE9F843044690F839001F464A
:100CA00016460D46202850D1A5B19EB194F83800C3
:100CB00001284AD0012084F838004FF00008C4F819
:100CC0003C80212084F83900FFF732FCA68481465D
:100CD000E68426E00120BDE8F883E08C401EE08435
:100CE000A0684B46B0F5805F4FF000024FF08001E6
:100CF0002046009703D000F0ABF9E8B90DE000F012
:100D0000A7F9C8B928882168C0F30800486020699D
:100D100008B16D1C05E0AD1C03E0216815F8010B5E
:100D20004860E08C0028D8D14B4600224021204664
:100D3000009700F08DF908B10320CCE7202084F85B
:100D4000390084F838800020C5E70220C3E7FEE7B9
:100D5000154810B5816986B041F020018161816933
:100D600001F020010491816941F0040181618169F0
:100D700001F004010491816941F0080181618069F9
:100D80000A4C00F008000490002210212046FFF7D2
:100D9000CAFB01211020CDE90001039169462046DC
:100DA000FFF7DEFA06B010BD00100240000C014053
:100DB0000D4810B50B4901604FF4E131416000214D
:100DC00081600C22C160C0E904128161C161FFF73A
:100DD00004FF002805D0BDE810402F2103A000F03B
:100DE0006AB910BD00380140140000202E2E5C535B
:100DF00072635C75736172742E630000FEE7704766
:100E00000907090E002806DA00F00F0000F1E020C3
:100E100080F8141D704700F1E02080F8001470473E
:100E20007047704710B5FFF789FBBDE81040FFF72A
:100E3000D0BE30B58FB001210804CDE900100024E8
:100E4000029402250491CDE90750C000099068463C
:100E5000FFF71CFD00B1FEE70F20CDE90A054FF4B6
:100E60008060CDE90C4001210AA80E94FFF708FC30
:100E700000B1FEE7FFF7AEFC4FF47A71B0FBF1F082
:100E8000FFF793FE0420FFF783FE00221146501E59
:100E9000FFF7C4FB0FB030BD0D48016841F0010100
:100EA000016041680B4A1140416001680A4A1140E3
:100EB0000160016821F480210160416821F4FE0194
:100EC00041604FF41F0181600449C003086070470E
:100ED000001002400000FFF8FFFFF6FE08ED00E002
:100EE0002DE9F041044600680169E26821F44051AF
:100EF000114301612169A0680843616908432168C1
:100F0000CA6841F20C639A430243CA60206841698F
:100F1000A26921F44071114341614C492068642564
:100F2000322688423CD1FFF76BFC00EBC00101EB9D
:100F3000001061688900B0FBF1F7FFF761FC00EB7E
:100F4000C00101EB00106168B0468900B0FBF1F010
:100F5000B0FBF5F06FF01801484307EB800106EB9A
:100F60000110B0FBF5F000F0F006FFF749FC00EBD4
:100F7000C00101EB001061688900B0FBF1F0B0FB2B
:100F8000F5F006EB0016FFF73BFC00EBC00101EBB0
:100F9000001061688900B0FBF1F7FFF731FC3BE01E
:100FA000FFF71EFC00EBC00101EB00106168890037
:100FB000B0FBF1F7FFF714FC00EBC00101EB0010F0
:100FC0006168B0468900B0FBF1F0B0FBF5F06FF05E
:100FD0001801484307EB800106EB0110B0FBF5F068
:100FE00000F0F006FFF7FCFB00EBC00101EB001086
:100FF00061688900B0FBF1F0B0FBF5F006EB00167C
:10100000FFF7EEFB00EBC00101EB00106168890007
:10101000B0FBF1F7FFF7E4FB00EBC00101EB0010C0
:1010200061688900B0FBF1F0B0FBF5F06FF01801DA
:10103000484307EB800108EB0110B0FBF5F0216895
:1010400000F00F0030448860BDE8F08100380140B6
:101050002DE9F041984617460E460446069D1DE0D0
:10106000681C1BD02DB1FFF763FAA0EB0800A84263
:1010700014D92068C16821F4D071C1602068416929
:1010800021F001014161202084F8390084F83A0000
:10109000002084F838000320BDE8F0812068006853
:1010A00036EA000004D00020B842D9D00020F3E78F
:1010B0000120F9E7FEE7FEE70FB4054B10B503A9E1
:1010C000044A029800F018F810BC5DF814FB000008
:1010D0004D1200081000002002E008C8121F08C1CD
:1010E000002AFAD170477047002001E001C1121FA9
:1010F000002AFBD1704700002DE9FF4F89B09B46C5
:101100000446002506E025280BD05A460B99904747
:10111000641C6D1C20780028F5D10DB02846BDE870
:10112000F08F0027B8460122474900E0074314F832
:10113000013F203B02FA03F00842F7D120782E2825
:1011400019D114F8010F47F004072A280ED06FF0C8
:101150002F022078A0F1300109290CD808EB880172
:1011600002EB410100EB0108641CF2E70A98641CE1
:1011700050F8048B0A9020780028CED0642808D03C
:10118000692806D075281ED05A460B9990476D1CC9
:1011900058E00A994FF00A0901C90A91002802DAB9
:1011A00040422D2102E0390504D52B218DF8201075
:1011B000012103E0F90704D02021F7E78A4608AEB1
:1011C0000DE00021FAE70A994FF00A0901C90A91D6
:1011D000F7E74946FEF7A6FF303106F8011D002863
:1011E000F7D1ADEB060000F12009780701D44FF0EC
:1011F0000108C84502DDA8EB090000E00020804698
:10120000002706E008A85A46C05D0B9990476D1C60
:101210007F1C5745F6DB04E030205A460B99904777
:101220006D1CB8F10001A8F10108F5DC05E016F825
:10123000010B5A460B9990476D1CB9F10001A9F1B9
:101240000109F4DC641C65E70928010013B54FF6B9
:10125000FF73012269460248FFF71CFD00981CBD80
:1012600014000020FFF772F9FFF7E3FDFFF770FDB0
:10127000FFF79EFD2020FFF737F8FEF77DFF0AA05D
:10128000FFF71AFF0CA0FFF717FF124C41F2883549
:101290001048FEF779FF627821780FA0FFF70CFF66
:1012A0002846FFF735F8F3E74448543131205445D8
:1012B0005354210D0A000000687474703A2F2F7780
:1012C00077772E696D6C6975626F2E6D65210D0AD9
:1012D000000000000400002054656D7065726174A8
:1012E0007572653A2025642048756D696469747962
:1012F0003A202564200D0A000000000000000000D4
:1013000001020304060708090000000001020304AB
:10131000301300080000002014000000D81000085E
:10132000441300081400002044040000E8100008E2
:1013300000A24A04000000000000000000000000BD
:0413400000000000A9
:04000005080000ED02
:00000001FF
